:100000006F0080016F0080126F00C00D6F00000C48
:080010006F0040106F00800E2C
:100018009300000013810000938100001382000008
:100028009382000013830000938300001384000070
:100038009384000013850000938500001386000058
:100048009386000013870000938700001388000040
:10005800938800001389000093890000138A000028
:10006800938A0000138B0000938B0000138C000010
:10007800938C0000138D0000938D0000138E0000F8
:10008800938E0000138F0000938F00007310503080
:10009800970101009381817617210100130101F670
:1000A80033040100938781801387018163E4E700AB
:1000B800EF00401823800700130000009387170003
:0400C8006FF0DFFEF8
:1000CC00130101FA232E1104EF0000079700000022
:0800DC009380400E6F00C01577
:1000E400130101FA232E1104EF008005970000008C
:0800F4009380C00C6F00401462
:1000FC00130101FA232E1104EF00000497000000F5
:08010C009380400B6F00C0124C
:10011400130101FA232E1104EF008002970000005E
:080124009380C0096F00401137
:10012C00130101FA232E1104EF00000197000000C7
:08013C00938040086F00C00F22
:10014400232031002322410023245100232661006F
:1001540023287100232AA100232CB100232EC100DF
:100164002320D1022322E1022324F10223260103C6
:1001740023281103232AC103232CD103232EE103B3
:100184002320F105732E007BF32E107B732F207B2D
:100194002322C1052324D1052326E105732E407BA8
:1001A400F32E507B732F607B2328C105232AD105AE
:0801B400232CE1056780000027
:1001BC00032E0105832E4105032F810573104E7B01
:1001CC0073905E7B73106F7B032E4104832E81042E
:1001DC00032FC10473100E7B73901E7B73102F7B47
:1001EC008321010003224100832281000323C100EB
:1001FC008323010103254101832581010326C101CC
:10020C008326010203274102832781020328C102AE
:10021C0083280103032E4103832E8103032FC10383
:10022C00832F01048320C1051301010673002030C4
:10023C00130101FE232E1100232C8100232A91008F
:10024C00232821012326310123244101232251019A
:10025C0023206101EF000028372500001305055805
:10026C00EF0080349305100013050000EF00802090
:10027C009305100013051000EF00C01F930510002C
:10028C0013052000EF00001F93051000130530002C
:10029C00EF00401EEF0080241305007DEF000025C9
:1002AC0013046004EF004025930420051309C004D7
:1002BC0093092004130A7005930A7007130B300579
:1002CC00EF000031E30E05FEEF00803113158501C0
:1002DC0013558541631A8500EF00C00913054006CC
:1002EC00EF0080246FF0DFFD63169500EF008014A3
:1002FC006FF0DFFE63162501EF00C00F6FF01FFEDD
:10030C0063163501EF00000B6FF05FFD63184501BC
:10031C001305007DEF00801D6FF09FFA63165501E9
:10032C001305401F6FF01FFFE31C65F9EF00800001
:10033C006FF01FF9130101FF930500001305000076
:10034C0023261100EF000016930500001305100082
:10035C00EF0040159305000013052000EF008014FA
:10036C008320C10093050000130530001301010127
:10037C006F004013130101FF9305100013050000DB
:10038C0023261100EF000012930500001305100046
:10039C00EF0040119305000013052000EF008010C2
:1003AC008320C100930510001305300013010101D7
:1003BC006F00400F130101FF9305000013050000AF
:1003CC0023261100EF00000E9305100013051000FA
:1003DC00EF00400D9305100013052000EF00800C7A
:1003EC008320C100930500001305300013010101A7
:1003FC006F00400B130101FF930500001305000073
:10040C0023261100EF00000A9305100013051000BD
:10041C00EF0040099305000013052000EF00800851
:10042C008320C10093051000130530001301010156
:10043C006F004007130101FF930510001305000026
:10044C0023261100EF000006930500001305100091
:10045C00EF0040059305100013052000EF00800409
:10046C008320C10093050000130530001301010126
:10047C006F004003B707010003A7070093071000A4
:10048C003395A70083270700638805003365F500C3
:10049C002320A700678000001345F5FF3375F50096
:1004AC006FF01FFFB707010003A7070093071000A9
:1004BC003395A70083274700638805003365F50053
:1004CC002322A700678000001345F5FF3375F50064
:1004DC006FF01FFF7370043067800000B7170002C5
:1004EC0023A4F18023A207006780000083A78180EA
:1004FC0023A8A7006780000003A7818083274700FB
:10050C0093E717002322F7006780000083A7418040
:10051C001307200023A4E7006780000083A7418015
:10052C0023A4070067800000130101FE232A910019
:10053C00B7C40000232C8100232631012324410160
:10054C00232E110023282101930905001304000018
:10055C0093840435631234038320C1010324810185
:10056C0083244101032901018329C100032A81004D
:10057C001301010267800000138941808327090061
:10058C0023A0070023A8970023A20700EFF01FF871
:10059C00032709008327C700E38E07FEEFF01FF83F
:1005AC00130414006FF01FFB3707100023A6E18023
:1005BC00930730012326F700B7F7FA029387070851
:1005CC0033D5A7021305F5FF2328A7006780000089
:1005DC0083A7C18003A587001375150067800000F1
:1005EC00130101FF23261100EFF09FFE9307F0FF8C
:1005FC006308050083A7C18083A7070093F7F70F53
:10060C008320C100138507001301010167800000DE
:020000021000EC
:08000000000040000000200098
:00000001FF
