:100000006F0080016F00802B6F00C00D6F00000C2F
:080010006F0040106F00800E2C
:100018009300000013810000938100001382000008
:100028009382000013830000938300001384000070
:100038009384000013850000938500001386000058
:100048009386000013870000938700001388000040
:10005800938800001389000093890000138A000028
:10006800938A0000138B0000938B0000138C000010
:10007800938C0000138D0000938D0000138E0000F8
:10008800938E0000138F0000938F00007310503080
:10009800970101009381817617210100130101F670
:1000A80033040100938781801387818963E4E70023
:1000B800EF00C01623800700130000009387170085
:0400C8006FF0DFFEF8
:1000CC00130101FA232E1104EF00800597000000A4
:0800DC009380C00C6F0040147A
:1000E400130101FA232E1104EF000004970000000D
:0800F4009380400B6F00C01265
:1000FC00130101FA232E1104EF0080029700000077
:08010C009380C0096F0040114F
:10011400130101FA232E1104EF00000197000000DF
:08012400938040086F00C00F3A
:10012C002320310023224100232451002326610087
:10013C0023287100232AA100232CB100232EC100F7
:10014C002320D1022322E1022324F10223260103DE
:10015C0023281103232AC103232CD103232EE103CB
:10016C002320F105732E007BF32E107B732F207B45
:10017C002322C1052324D1052326E105732E407BC0
:10018C00F32E507B732F607B2328C105232AD105C6
:08019C00232CE105678000003F
:1001A400032E0105832E4105032F810573104E7B19
:1001B40073905E7B73106F7B032E4104832E810446
:1001C400032FC10473100E7B73901E7B73102F7B5F
:1001D4008321010003224100832281000323C10003
:1001E4008323010103254101832581010326C101E4
:1001F4008326010203274102832781020328C102C7
:1002040083280103032E4103832E8103032FC1039B
:10021400832F01048320C1051301010673002030DC
:10022400130101FF23261100EF00C06737C5010049
:1002340013050520EF00006C930510001305000062
:10024400EF0040639305100013051000EF00806277
:100254006F000000130101FF130510002326110095
:10026400EF00C06537A5070013050512EF004066CF
:1002740013050000EF008063EF0080669307000819
:1002840073A047308320C10013010101678000007F
:10029400130101FF23261100EF00C0356308050098
:1002A4008320C100130101016F0040538320C1006A
:1002B4001301010167800000130101F823201100DC
:1002C4002322210023243100232641002328510026
:1002D400232A6100232C7100232E81002320910204
:1002E4002322A1022324B1022326C1022328D102FE
:1002F400232AE102232CF102232E010323201105DA
:1003040023222105232431052326410523285105D1
:10031400232A6105232C7105232E810523209107AF
:100324002322A1072324B1072326C1072328D107A9
:10033400232AE107232CF1079702010083A2C2CCF0
:1003440023A02200F3221034232E5106EFF05FF491
:1003540017010100032141CB032101008322C107BE
:1003640073901234B72200009382028873A0023083
:10037400832001000322C1008322010103234101E0
:10038400832381010324C101832401020325410243
:10039400832581020326C102832601030327410327
:1003A400832781030328C10383280104032941040B
:1003B40083298104032AC104832A0105032B4105EF
:1003C400832B8105032CC105832C0106032D4106D3
:1003D400832D8106032EC106832E0107032F4107B7
:1003E400832F81071301010873002030EFF09FE68B
:1003F40017010100032141C1032101008322C10728
:1004040073901234B72200009382028873A00230E2
:10041400832001000322C10083220101032341013F
:10042400832381010324C1018324010203254102A2
:10043400832581020326C102832601030327410386
:10044400832781030328C10383280104032941046A
:1004540083298104032AC104832A0105032B41054E
:10046400832B8105032CC105832C0106032D410632
:10047400832D8106032EC106832E0107032F410716
:10048400832F810713010108730020306780000067
:1004940073700430130101F823201100232221007A
:1004A400232431002326410023285100232A6100FC
:1004B400232C7100232E8100232091022322A102E8
:1004C4002324B1022326C1022328D102232AE102D4
:1004D400232CF102232E01032320110523222105BD
:1004E400232431052326410523285105232A6105A8
:1004F400232C7105232E8105232091072322A10794
:100504002324B1072326C1072328D107232AE1077F
:10051400232CF1079702010083A202AF23A022003B
:10052400232E1106EF00802B170101000321C1AD1A
:10053400032101008322C10773901234B722000003
:100544009382028873A00230832001000322C10039
:100554008322010103234101832381010324C10177
:100564008324010203254102832581020326C1025B
:100574008326010303274103832781030328C1033F
:10058400832801040329410483298104032AC10423
:10059400832A0105032B4105832B8105032CC10507
:1005A400832C0106032D4106832D8106032EC106EB
:1005B400832E0107032F4107832F810713010108AD
:1005C400730020301387C1808327070083A60700A8
:1005D4009387C181639806001307F0FF23A0E70007
:1005E40067800000032707000327C70003270700CD
:1005F4006FF0DFFE83A741816396071C130101FF9F
:10060400938781822324810003A4070023261100F9
:100614001304140023A08700631404049387C18087
:1006240003A707000327070063080700737004305B
:10063400130000006F0000001387018183A60700E8
:100644000326070023A0C7002320D7009387018235
:1006540003A707001307170023A0E700EFF09FF696
:100664009387C18183A707001386C18113874183C0
:1006740093858180130500006372F40483A7050049
:100684009306400183A7C702B387D7023307F70055
:10069400032707009307100063F4E7001305100015
:1006A40083A7C18263840700130510008320C1005F
:1006B400032481001301010167800000130F40012E
:1006C4009387C18083A6070083A60600639806006B
:1006D4009307F0FF2320F6006FF05FFA83A707006B
:1006E40083A7C70083A7C70083A647006376D40007
:1006F4002320D6006FF09FF883A8870003A8C700C3
:1007040083A647011383470023A408012322180169
:1007140083A846006394680023A2060103A8060088
:1007240023AA07001308F8FF23A0060183A6870263
:10073400638C060203A8C70183A8070283AF46009F
:100744002324180183A8070223A208011388870120
:1007540063940F0123A2160103A8060023A4070231
:100764001308F8FF23A006019386818103A8C7021A
:1007740083A8060063F4080123A00601B306E80376
:10078400B306D70083A8460083AF880023A41701CB
:1007940023A6F70183AF880023A26F0023A4680077
:1007A40023AAD70083A706009387170023A0F60087
:1007B40083A7050083A7C702E364F8F013051000BC
:1007C4006FF01FF09387418203A707001305000011
:1007D4001307170023A0E7006780000003A74181E7
:1007E4009387C182630807001307100023A0E70062
:1007F4006780000023A00700138781810327070077
:10080400138681819387418313084001B30607034C
:10081400B385D70003A505006302050403A54500BD
:1008240093868600B386D7000325450023A2A5003E
:100834006316D5008326450023A2D5009306400104
:10084400B306D702B387D70083A7470083A6C700A0
:1008540023A4D1802320E6006780000063180700EA
:1008640073700430130000006F0000001307F7FFDB
:100874006FF0DFF9B707010003A707009307100023
:100884003395A70083270700638805003365F500C7
:100894002320A700678000001345F5FF3375F5009A
:1008A4006FF01FFF7370043067800000B70701000A
:1008B40083A7470023A2A70067800000B7070100B1
:1008C40083A747001305F5FF23A0A7006780000056
:1008D400B707010083A7470023A8A700678000008B
:1008E400B707010083A747001307200023A4E700EC
:1008F400678000003707100023A8E18293073001C6
:100904002326F700B7F7FA029387070833D5A7021F
:0C0914001305F5FF2328A70067800000F2
:020000021000EC
:08000000000040000000200098
:00000001FF
